:1070000039C000009BC0000099C0000097C000007C
:1070100095C0000093C0000091C000008FC0000028
:107020008DC000008BC0000089C00000CDC00000F2
:1070300085C0000083C0000081C000007FC0000048
:107040007DC000007BC00000DEC2000077C00000F1
:1070500075C0000073C0000071C000006FC0000068
:107060006DC000006BC0000069C0000067C0000078
:1070700065C0000011241FBECFEFD4E0DEBFCDBF3E
:10708000E3E0F0E089E080935700849180FD12C036
:1070900004B601FE0AC081E0209183013091840191
:1070A00022343C4D19F080E001C081E094B79D7F0F
:1070B00094BF11C004B603FE0AC081E02091830191
:1070C0003091840122343C4D19F080E001C080E011
:1070D00094B7977F94BF20E030E0F9014591549137
:1070E0008823B9F04F3F5F4FA1F084B7877F84BFFB
:1070F0000FB6F894A8958091600088618093600035
:10710000109260000FBE1092840110928301F90169
:10711000099511E0A0E0B1E0E2EEFDE702C00590C4
:107120000D92A636B107D9F721E0A6E6B1E001C07D
:107130001D92A338B207E1F774D251C661CF809196
:107140007A0187FF0FC08091E80082FD04C08EB3F2
:107150008111F9CF10C08091E8008B7F0AC08EB3F7
:10716000882349F08091E80080FFF9CF8091E80002
:107170008E7F8093E8000895E2E7F1E03581248175
:10718000938182819093700180937101C9019093E2
:107190006E0180936F0108958823A9F09091F20009
:1071A00091110DC09091E8009B7F9093E800909121
:1071B000E80092FD06C09EB39111F9CF04C09091F2
:1071C000F1008150E9CF08951F920F920FB60F92F0
:1071D00011248F938091E10080FF15C08091E2001F
:1071E00080FF11C08091E2008E7F8093E200809149
:1071F000E20080618093E2008091D80080628093F9
:10720000D80019BC1EBA8091E10084FF2CC0809187
:10721000E20084FF28C019BC82E089BD09B400FEE9
:10722000FDCF8091D8008F7D8093D8008091E100C0
:107230008F7E8093E1008091E2008F7E8093E20058
:107240008091E20081608093E20080918201882336
:1072500011F084E007C08091E30087FD02C081E067
:1072600001C083E08EBB8091E10083FF2AC0809142
:10727000E20083FF26C08091E100877F8093E100D8
:1072800082E08EBB109282018091E1008E7F80931C
:10729000E1008091E2008E7F8093E2008091E20025
:1072A00080618093E2008091EB0081608093EB002D
:1072B0001092ED001092EC0082E28093ED0080913C
:1072C000EE008F910F900FBE0F901F9018959FB7F3
:1072D000F89407B600FCFDCFF999FECF809529E020
:1072E000E1E0F0E0082E20935700E8959FBF089555
:1072F000E1E0F0E089E0809357008491089529E06F
:10730000FC01209357008491089521E2FC01209311
:1073100057008491089507B600FCFDCFF999FECF80
:1073200021E0FB010A0120935700E89511240895FC
:107330000F931F93611520E772078105910570F483
:1073400041E08B019C010F77112722273327012B66
:10735000022B032B09F040E0242F01C020E020FF86
:1073600014C02FB7F89407B600FCFDCFF999FECFF3
:1073700035E0FB0130935700E89507B600FCFDCFE0
:1073800091E190935700E8952FBF1F910F910895B9
:107390000F931F93611520E772078105910570F423
:1073A00041E08B019C010F77112722273327012B06
:1073B000022B032B09F040E0242F01C020E020FF26
:1073C00014C02FB7F89407B600FCFDCFF999FECF93
:1073D00033E0FB0130935700E89507B600FCFDCF82
:1073E00091E190935700E8952FBF1F910F91089559
:1073F000CF92DF92EF92FF921F93CF93DF9300D053
:107400001F92CDB7DEB790916D01809172019923E3
:10741000D1F0843049F480917301811108C08091CA
:1074200074018F3F21F455C0853009F4A3C08AE070
:107430008093010183E080936C018091EB00806276
:107440008093EB00D5C0843009F443C028F4813028
:1074500051F08330D9F0CCC0853009F48BC0863030
:1074600009F4B3C0C5C010917301123008F0C0C058
:1074700083DE111109C0609170017091710120913A
:107480006B01822F90E084DF85E007C0809173015B
:10749000982F9D7F29F470DE89E080930101A8C0B8
:1074A000813009F0A5C0E0E0F0E084918F3F59F011
:1074B00010926B01F0937101E09370018AE0809368
:1074C000010185E093C03196E11520E7F20769F7E5
:1074D0008FC080917301833091F581E080936901C1
:1074E000E0917801F091790180917401309761F019
:1074F000813009F07DC09091770180917601909361
:1075000067018093680174C0811111C082E49CED11
:1075100090938401809383019CE088E10FB6F894F6
:10752000A895809360000FBE9093600061C0859124
:107530009491019609F05CC01092000159C081112C
:1075400057C0809174018F3F09F052C0C12CD12CDB
:107550007601C701B6011CDF80E8C80ED11CE11C12
:10756000F11CC11420E7D206E104F10491F7109256
:107570006D013EC08091020190910301A091040130
:1075800089839A83AB8380917401909173019111E7
:1075900007C0833038F5FE01E80FF11D818112C06C
:1075A000913031F5813359F020F48033D9F488E5F6
:1075B00009C0803631F08136A9F48AE803C08EE133
:1075C00001C085E980936A0113C080917301833003
:1075D00079F48091740181110BC0809175018093C1
:1075E0006B0106C08AE08093010188E080936C0102
:1075F0000F900F900F90DF91CF911F91FF90EF9020
:10760000DF90CF9008951F920F920FB60F92112422
:107610008F9380E389B98F910F900FBE0F901F90C9
:107620001895CF93DF9300D000D000D0CDB7DEB750
:1076300084B7877F84BF0FB6F894A89580916000C7
:10764000886180936000109260000FBE90E080E837
:107650000FB6F89480936100909361000FBE21E013
:1076600025BF92E095BF809163008E7F8093630079
:10767000209366011092E2001092E1008091D80000
:107680008F778093D8008091D80080688093D8004D
:107690008091D8008F7D8093D80019BC99BD09B422
:1076A00000FEFDCF1EBA109282018091EB00816036
:1076B0008093EB001092ED001092EC0082E2809338
:1076C000ED008091EE008091E1008E7F8093E100DB
:1076D0008091E20081608093E2008091E200886006
:1076E0008093E2008091E0008E7F8093E0008AB179
:1076F000806F8AB98BB18F708BB981E080936F00F6
:1077000083E0809381008BB18F7080618BB9789416
:1077100082E0282E9091000180916901992309F45B
:10772000B0C22EB32223D1F32091E80023FFF6CF7D
:10773000EAE7F1E08091F100819321E0E238F2077D
:10774000C9F780917A018F77813209F0EDC130E37A
:1077500039B9809180019091810190937901809352
:10776000780180917B01833009F4A1C158F4813004
:10777000C9F0823009F0D8C18091E800877F8093FA
:10778000E80002C1853009F4B8C108F4AEC1863002
:1077900009F0CAC18091E800877F8093E8002092B9
:1077A0000101C1C18091E800877F8093E80080914A
:1077B0006901882319F01CDE10926901809178011B
:1077C00090917901009749F12091E80022FD04C0D1
:1077D0002EB32111F9CFA8C12091F100209372019D
:1077E00001979093790180937801E3E7F1E080912C
:1077F000F200882389F08091F100819380917801D3
:10780000909179010197909379018093780188E7AD
:1078100091E08E179F0759F7EBDD809101018530CC
:1078200009F0AAC08091780190917901892B19F40F
:1078300020920101A1C08AE1AFDCA0907001B0905C
:1078400071018A2D8F71A8DC20916E0130916F013A
:107850002F5F3F4F2A193B093E832D83809173018F
:10786000811176C0369527953E832D8365018091E1
:107870006B01E82EF12CA982DA828B83FC82312CF9
:107880008D819E81892B09F440C08091F20088236C
:10789000D1F08D819E8101979E838D834091F1006F
:1078A0005091F100C701B60136DD3394460157010E
:1078B00092E0890E911CA11CB11C7501640120E4A9
:1078C00032120EC011C08091E8008B7F8093E800D7
:1078D0008091E80082FDDDCF8EB38111F9CF24C104
:1078E0008D819E81892B61F669817A818B819C8152
:1078F0001FDD2D813E81232B19F2C501B40148DD26
:1079000089829A82AB82BC82BACF80916E019091BB
:107910006F0190937101809370012CC08091F200EF
:107920008823D9F02D813E81215031093E832D835A
:107930006091F10080917001909171013ED280912F
:107940007001909171010196909371018093700183
:107950008D819E81892B11F70DC08091E8008B7F6E
:107960008093E8008091E80082FDDCCF8EB3811126
:10797000F9CFDAC080E110DC8091E8008B7FD1C0C4
:107980008EB3882309F4D0C08091E80080FFF8CF3F
:1079900080910101893081F08A3059F4809173011E
:1079A000813039F490917001809171019093F100D0
:1079B000B3C080916A01B0C0809170019091710153
:1079C00020916E0130916F012F5F3F4F281B390BC3
:1079D0003E832D8320917301211139C02D813E8179
:1079E000369527953E832D832C0180916B01682E5F
:1079F000712C8D819E8101979E838D830196F1F07C
:107A00008091F200803269F0F20185919491809327
:107A1000F1009093F10032E0430E511C611C711C87
:107A2000E8CF8091E8008E7F8093E8008091E800A5
:107A300080FDEACF8EB38111F9CF76C080916E01BF
:107A400090916F0190937101809370012DC022304D
:107A500059F52D813E81232B39F18091F20080323E
:107A6000B1F080917001909171019FD18093F100EC
:107A700080917001909171010196909371018093B2
:107A800070018D819E8101979E838D83E2CF8091CD
:107A9000E8008E7F8093E8008091E80080FDE1CFD0
:107AA0008EB38111F9CF40C02092010137C080917F
:107AB000E800877F8093E8008091E80080FD04C0A3
:107AC0008EB38111F9CF30C080916C018093F100A9
:107AD0001092F1001092F1001092F10080910101DA
:107AE0008093F1001092F10019C08091E800877F27
:107AF0008093E80010926C0116C08091E800877FA7
:107B00008093E8008091E80080FD04C08EB381116D
:107B1000F9CF0AC0809101018093F1008091E800C3
:107B20008E7F8093E8000BDB8091E80083FF9AC092
:107B300080917A0190917B01963009F43DC028F440
:107B4000992351F09530B1F08DC0983009F456C0AA
:107B5000993009F465C086C08D7F803809F082C0F5
:107B60008091E800877F8093E8001092F1001092E6
:107B7000F1004FC0811176C030917C013F7739838D
:107B80008091E3008078832B8093E3008091E8006C
:107B9000877F8093E800D3DA8091E80080FFFCCFF4
:107BA0008091E30080688093E3008981811102C0A5
:107BB00082E057C083E055C08058823008F052C040
:107BC00080917C0100917D0110E00230110541F0AF
:107BD0000330110551F00130110509F043C081C097
:107BE0002BE130E0E9E3F1E08FC0882309F47EC0A7
:107BF000813009F480C08230A9F582C0803891F5C7
:107C00008091E800877F8093E800809182018093D3
:107C1000F1008091E8008E7F8093E80090DA22C026
:107C2000811120C080917C0190917D01992702975C
:107C3000CCF48091E800877F8093E80090917C01EC
:107C40009983909382017BDA2981222319F034E011
:107C50003EBB08C08091E30087FD02C081E001C007
:107C600084E08EBB8091E80083FF54CD8091E800D2
:107C7000877F8093E8008091EB0080628093EB0027
:107C800047CD81114ECD8FEC97E00197F1F700C001
:107C900000001092E2001092E1008091E00081600B
:107CA0008093E0008091D8008F778093D80019BC32
:107CB00080916300816080936300109266018AB1B5
:107CC0008F708AB98BB18F708BB910926F00109240
:107CD000810081E085BF15BEE0916701F0916801E8
:107CE000099522E130E0E4E5F1E00EC024E030E067
:107CF000E9E1F1E009C02AE130E0EDE1F1E004C0A2
:107D000022E130E0E5E0F1E08091E800877F8093B8
:107D1000E80080918001909181012817390708F4CB
:107D2000C90140E0009759F12EB32223C1F125305B
:107D3000B1F12091E80023FD32C02091E80022FD3E
:107D40002AC02091E80020FFEDCF2091F20030E022
:107D5000009751F02032310538F441914093F10001
:107D600001972F5F3F4FF4CF41E02032310509F0FA
:107D700040E02091E8002E7F2093E800D3CF41110E
:107D8000D3CF09C08EB3882351F0853041F0809164
:107D9000E80083FD04C08091E80082FFF3CF80916A
:107DA000E8008B7F8093E8005DCFF999FECF92BD0C
:107DB00081BDF89A992780B50895262FF999FECFAD
:107DC00092BD81BDF89A019700B4021639F01FBA2E
:107DD00020BD0FB6F894FA9AF99A0FBE0895F89458
:027DE000FFCFD3
:107DE200010220DCFB12034C00550046004100203A
:107DF200004400460055000000040309041A034C25
:107E02000055004600410020004C006900620072EB
:107E120000610072007900000009021B00010100EC
:107E220080320904000000FE010200092103000063
:107E3200000C10011201100100000020EB03F02FD2
:067E420000000102000136
:107FA000F7C9C6C9B8C9B1C9AAC9A2C990C90895B3
:087FB000089508950895089555
:107FE000DFCFDFCFDFCFDFCFDFCFDFCFDFCFDFCF21
:087FF000DFCFDFCFDFCFDFCFD1
:087FF8000070000010DFFBDC4B
:040000030000700089
:00000001FF
