:1000000019C200004EC200004CC200004AC20000EB
:1000100048C2000046C2000044C2000042C20000C4
:1000200040C200003EC200003CC200000C946D0AB9
:100030000C94160B36C2000034C2000032C200001D
:1000400030C200002EC200002CC200002AC20000F4
:1000500028C2000026C2000024C2000022C2000004
:1000600020C200001EC200001CC200001AC2000014
:1000700018C200000D0A507265737320616E7920FA
:100080006B657920746F2072657475726E20746F61
:100090002074686520656469746F722E0D0A000D06
:1000A0000A0D0A434F4D4D414E44533A0D0A0D0A75
:1000B0004354524C2D472020202048454C500D0AD7
:1000C0004354524C2D4C202020205245465245533B
:1000D000482053435245454E0D0A4354524C2D5728
:1000E00020202020544F47474C4520575249544523
:1000F000204D4F44450D0A4354524C2D462020209C
:1001000020544F47474C4520464C4153484C4947A3
:100110004854204D4F44450D0A4354524C2D502015
:1001200020202053455420454E4352595054494FA6
:100130004E2050415353574F52440D0A4354524C92
:100140002D592020202055504441544520464952E5
:100150004D574152450D0A000D0A546F20656E74CB
:100160006572206669726D77617265207570646171
:100170007465206D6F64652C20747970652055500E
:10018000444154452028696E20616C6C2063617085
:1001900073292062656C6F772C0D0A616E64207480
:1001A0006865206465766963652077696C6C206595
:1001B0006E74657220555342204446552075706414
:1001C000617465206D6F64652E0D0A0D0A546F20F1
:1001D00072657475726E20746F206E6F726D616CD3
:1001E000206D6F64652073696D706C7920756E7019
:1001F0006C756720616E64207468656E20706C7524
:10020000672D696E20746865206465766963652E64
:100210000D0A0D0A000D0A496620796F7520736575
:100220007420612070617373776F72642C20616C2D
:100230006C20746578742077696C6C20626520642A
:100240006563727970746564207573696E67207474
:100250006861740D0A70617373776F726420616EE8
:1002600064206E657720746578742077696C6C20E3
:10027000626520656E637279707465642075736958
:100280006E6720746861742070617373776F726435
:100290002E0D0A0D0A5768656E20796F75207265FC
:1002A000636F6E6E6563742074686520646576693B
:1002B00063652C207072657373204354524C2D502B
:1002C00020616761696E20616E642072652D656EC4
:1002D0007465720D0A796F75722070617373776F30
:1002E00072642E20507265737320454E544552201F
:1002F000746F20757365206E6F20656E6372797000
:1003000074696F6E2F64656372797074696F6E2E95
:100310000D0A0D0A00535441484C204649524D578E
:10032000415245205625730D0A436F7079726967F3
:100330006874202863292032303231204C6F6E657A
:100340002044796E616D69637320436F72706F72C0
:100350006174696F6E2E20416C6C207269676874DD
:10036000732072657365727665642E0D0A0D0A003E
:10037000380353007400610068006C0020005300D3
:100380006500630075007200650020005300740072
:100390006F00720061006700650020004400650086
:1003A0007600690063006500000034034C006F00B4
:1003B0006E0065002000440079006E0061006D0051
:1003C000690063007300200043006F00720070003A
:1003D0006F0072006100740069006F006E00000021
:1003E0000403090409023E00020100C032090400AE
:1003F0000001020201000524001001042402060588
:1004000024060001070582030800FF090401000219
:100410000A0000000705040210000507058302100A
:1004200000051201100102000008C016E1050100DC
:100430000102DC0111241FBECFEFD4E0DEBFCDBF2F
:1004400004B603FE18C08091970390919803A09181
:100450009903B0919A038730904BA740B04B59F461
:1004600010929703109298031092990310929A0396
:10047000E0E0F0E7099512E0A0E0B1E0E2ECF4E2A0
:1004800002C005900D92AC36B107D9F723E0ACE677
:10049000B2E001C01D92A739B207E1F739D00C9440
:1004A0005F12AECD811104C01092800018B808957B
:1004B00090E090938B0080938A0089E28093800083
:1004C00082E080938100089582E091E00E94610DB6
:1004D0000C94BD0C8091000190910101089584B7A6
:1004E000877F84BF0FB6F894A895809160008861DB
:1004F00080936000109260000FBE90E080E80FB61D
:10050000F89480936100909361000FBED7D772C5B5
:10051000E6DF6DE672E082E091E00E94AD0D8DE6CF
:1005200092E090939403809393039093920380932B
:1005300091033D9A82E3B6DF789465D16ED382E071
:1005400091E00E94770D9093010180930001BCDF40
:10055000F5CF0895089582E091E00C94D70C82E0E5
:1005600091E00C94C20DFC018089817080936C0233
:10057000A6C0FF920F931F93CF93DF93C0E0D0E00C
:1005800091E2F92E0FE111E0FE01F0925700849103
:100590001F928F931F930F930E943A0F21960F90F3
:1005A0000F900F900F90C330D10571F78DE290E05E
:1005B0000E94700FCEE0D0E081E2F82E0FE111E052
:1005C000FE01F092570084911F928F931F930F9317
:1005D0000E943A0F21960F900F900F900F90C83104
:1005E000D10571F7DF91CF911F910F91FF90089581
:1005F0001F9281E08F931F9288E18F9384E291E0B4
:100600009F938F930E943A0F809181028F938091E4
:1006100080028F93809183028F93809182028F93C7
:100620008DE291E09F938F930E943A0F8DB79EB712
:100630000C960FB6F8949EBF0FBE8DBF80917C02C2
:10064000882319F080E591E002C08BE591E09F934B
:100650008F930E943A0F0F900F9085E691E09F9341
:100660008F930E943A0F809181028F938091800234
:100670008F93809183028F93809182028F9384E283
:1006800091E09F938F930E943A0F8DB79EB7089683
:100690000FB6F8949EBF0FBE8DBF16CF262F309198
:1006A0007B02332351F060E071E00E94840EFC0174
:1006B000EC57FD4F808182270895862F08957F9201
:1006C0008F929F92AF92BF92CF92DF92EF92FF9262
:1006D0000F931F93CF93DF93CDB7DEB7C055D109EA
:1006E0000FB6F894DEBF0FBECDBF82DF1F928BE343
:1006F0008F931F9288E18F9384E291E09F938F9371
:100700000E943A0F88E691E09F938F930E943A0FE0
:100710008AE0C8DE0FB6F894DEBF0FBECDBFE12C75
:10072000F12C00E010E07724739484E2A82E81E09D
:10073000B82E40E550E0B701CE01019667D40F5FB7
:100740001F4F1F927F921F930F93BF92AF920E94F1
:100750003A0FFE0131964F010F900F900F900F90BE
:100760000F900F90C12CD12CF40161914F01C60163
:100770008E0D9F1D93DF90EE980F60919303709103
:1007800094039F3510F490E002C08EE290E00E9446
:10079000FE0EFFEFCF1ADF0A80E5C816D10421F75D
:1007A00090E5E90EF11C0731110519F680918102DF
:1007B0008F93809180028F93809183028F93809199
:1007C00082028F9384E291E09F938F930E943A0F6D
:1007D0000F900F900F900F900F900F90C05BDF4F16
:1007E0000FB6F894DEBF0FBECDBFDF91CF911F9142
:1007F0000F91FF90EF90DF90CF90BF90AF909F90C0
:100800008F907F9008958EE791E09F938F930E9441
:100810003A0F83E891E09F938F930E943A0F81E013
:1008200090E0909381028093800290938302809362
:1008300082020F900F900F900F9041CF80917F0216
:100840008A3F19F410927F0208958AEF80937F0205
:10085000089582E090E090931E0180931D018EE741
:1008600091E09F938F930E943A0F83E891E09F93CA
:100870008F930E943A0F87E891E09F938F9385E1D1
:1008800093E09F938F930E944D0F8DE891E09F938B
:100890008F930E943A0FF7D32DB73EB7265F3F4F95
:1008A0000FB6F8943EBF0FBE2DBF882319F086E91E
:1008B00091E002C080EA91E00E94750F8EEC91E019
:1008C0009F938F930E943A0F54DE8FE990E00E942D
:1008D000A50F0F900F9084E790E00C94A50F0F9355
:1008E0001F93FC010081118122813381B901A8018C
:1008F0008DE0440F551F661F771F8A95D1F7042797
:10090000152726273727B901A80191E17695679524
:10091000579547959A95D1F7042715272627372706
:10092000B901A801A5E0440F551F661F771FAA95BE
:10093000D1F7CB01BA016027712782279327608303
:100940007183828393831F910F910895AF92BF9219
:10095000CF92DF92EF92FF920F931F93CF93DF938B
:100960006C015B01AB014F5F5F4F60E070E00E9484
:10097000AB0EC0E0D0E007ED11E0809191039091C3
:1009800092030E94C00E7C018DE0E816F104E1F1B3
:1009900088E0E816F10421F08FE7E816F104E1F4AD
:1009A0002197F601EC0FFD1F10821F930F930E94F9
:1009B0003A0F80E290E00E94700F1F930F930E9405
:1009C0003A0F1F930F930E943A0F0F900F900F90C2
:1009D0000F900F900F900FC01E141F0464F46091CD
:1009E000930370919403C7010E94FE0EF601EC0F71
:1009F000FD1FE0822196D7FF02C0C0E0D0E0AC1618
:100A0000BD0611F061DDB9CFDF91CF911F910F913C
:100A1000FF90EF90DF90CF90BF90AF900895CF936D
:100A2000DF93CDB7DEB728970FB6F894DEBF0FBEC1
:100A3000CDBF8EE791E09F938F930E943A0F83E89A
:100A400091E09F938F930E943A0F88E591E09F93E6
:100A50008F930E944D0F8BED91E09F938F930E9497
:100A60003A0F67E070E0CE01019670DF47E050E09A
:100A70006EED71E0CE0101960E94B20E0FB6F894B1
:100A8000DEBF0FBECDBF892BB9F082E090E090931E
:100A90001E0180931D0185EE91E00E94750F84E791
:100AA00090E00E94A50F28960FB6F894DEBF0FBE07
:100AB000CDBFDF91CF910895B4D4F8943FEF83ED8B
:100AC00090E3315080409040E1F700C0000087E0A3
:100AD00090EBDC018093970390939803A093990384
:100AE000B0939A039CE088E10FB6F894A8958093A0
:100AF00060000FBE90936000FFCF0F931F93CF93C2
:100B0000DF93CDB7DEB764970FB6F894DEBF0FBEA4
:100B1000CDBF8EE791E09F938F930E943A0F83E8B9
:100B200091E09F938F930E943A0F85E192E00E949B
:100B3000A50F8DE092E09F938F930E943A0F6FE094
:100B400070E08E010F5F1F4FC80100DF8EE991E05A
:100B50000E94750F8EE991E00E94750F82E090E08F
:100B600090931E0180931D010F900F900F900F9096
:100B70000F900F908981811107C08AE292E00E9454
:100B8000750F10927B020CC01F930F9380E492E0CC
:100B90009F938F930E943A0F0F900F900F900F909A
:100BA00084E790E00E94A50F8981882359F1F8011C
:100BB00001900020E9F73197BF01601B710B98018C
:100BC00088E796E5A4E3B2E1A901401B510B461763
:100BD000570728F4F90141919F018427F5CF898BAC
:100BE0009A8BAB8BBC8B04E812E0CE01419677DE8A
:100BF000F80161938F01F3E004381F07B1F781E03A
:100C000080937B0264960FB6F894DEBF0FBECDBF13
:100C1000DF91CF911F910F9108950F931F93CF9361
:100C2000DF9380917F023EDC55DCEC01181619063B
:100C30000CF0DBC180911D0190911E010297D9F447
:100C400081E090E090931E0180931D0183E891E084
:100C50009F938F930E943A0F8EE791E09F938F931B
:100C60000E943A0F0F900F900F900F90DF91CF914D
:100C70001F910F9124CDCB31D10541F0CB35D1055A
:100C800041F0CC30D10599F41ADD77C181E090E0D4
:100C900009C080917D0290917E02019709F06DC19B
:100CA00082E090E090937E0280937D0266C1809105
:100CB0007D0290917E028230910509F0ACC01092C5
:100CC0007E0210927D02C134D10561F480918202CE
:100CD00090918302019790938302809382028CE526
:100CE00092E00EC0C234D10591F4809182029091BD
:100CF00083020196909383028093820280E692E0C1
:100D00009F938F930E943A0F0F900F9034C0C3347B
:100D1000D10591F480918002909181020196909387
:100D200081028093800284E692E09F938F930E94D9
:100D30003A0F0F900F903DC0C434D10561F48091FB
:100D400080029091810201979093810280938002AA
:100D500087ED91E00BC0C834D10569F481E090E0E3
:100D600090938102809380028EE791E09F938F930E
:100D70000E943A0F4DC0C634D105D9F480E590E009
:100D800090938102809380021F928F9380918302BF
:100D90008F93809182028F9384E291E09F938F934F
:100DA0000E943A0F0F900F900F900F900F900F909E
:100DB000E4C0E39709F0E1C080917C02882309F444
:100DC000DCC08091820290918302019760E570E01F
:100DD0008AD7C0918002D09181022197C80FD91F74
:100DE00084E660DB60E0CE0159DC682FCE0136D1AD
:100DF0008EE290E00E94700F87ED91E09F938F93B9
:100E00000E943A0F83E090E090937E0280937D02EF
:100E10000F900F90B2C08330910529F410927E029A
:100E200010927D02AAC0892B09F0A7C0C830D10555
:100E300021F0CF37D10509F03DC080917C02882395
:100E400009F49BC0C0918002D0918102CE0101972C
:100E5000909381028093800280918202909183021C
:100E6000019760E570E03FD72297C80FD91F84E64D
:100E700019DB60E0CE0112DC682FCE01EFD0C7EDA8
:100E8000D1E0DF93CF93F6D78EE290E00E94700F0F
:100E9000DF93CF93EFD7DF93CF93ECD7DF93CF934D
:100EA000E9D78DB79EB708960FB6F8949EBF0FBED0
:100EB0008DBF63C0C031D10511F41FDE5EC0CD30DF
:100EC000D105A9F488E692E09F938F93D3D781E070
:100ED00090E09093810280938002809182029091B1
:100EE00083020196909383028093820291CFC63051
:100EF000D10511F4A3DC41C0C730D10511F4A9DC40
:100F00003CC0C931D10511F48ADD37C080917C0223
:100F1000C731D10549F4882319F010927C022DC005
:100F200081E080937C0229C08823F1F060919303D3
:100F300070919403CE0162D78091820290918302D6
:100F4000019760E570E0CFD6009180021091810298
:100F500001501109080F191F84E6A4DA6C2FC8018B
:100F60009DDB682FC8017AD0809180029091810228
:100F700001969093810280938002809180029091EB
:100F800081021816190634F081E090E090938102F6
:100F90008093800280918002909181028135910539
:100FA00034F080E590E090938102809380028091FC
:100FB0008202909183021816190634F081E090E0C5
:100FC00090938302809382028091820290918302A7
:100FD000489734F087E190E09093830280938202F7
:100FE000DF91CF911F910F9103CBDF91CF911F9193
:100FF0000F91089587E084B981E58CBD289A089502
:101000008EBD0DB407FEFDCF8EB50895EF92FF9211
:101010000F931F93CF93DF938C01EB017A012898F4
:1010200083E0EEDF8D2FECDF8C2FEADFE801CE01CD
:10103000801B910B8E159F0524F480E0E1DF8993DE
:10104000F6CF289ADF91CF911F910F91FF90EF90EB
:101050000895289886E0D4DF289A08951F93CF93A7
:10106000DF93D82F192FC62FF4DF289882E0C8DF2E
:10107000812FC6DF8D2FC4DF8C2FC2DF289ADF912E
:10108000CF911F9108951F93CF93DF9328988FE9F5
:10109000B7DF80E0B5DF182F80E0B2DFD82F80E027
:1010A000AFDFC82F80E0ACDF982F143039F4DF3782
:1010B00029F4C13019F481E0913009F080E0289AD8
:1010C000DF91CF911F910895292F332722303105C9
:1010D00059F02330310569F021303105E9F482E11E
:1010E00090E022E234E01CC08EE390E024EE33E096
:1010F00017C099278130910549F028F0029761F4D3
:10110000E0E7F3E005C0E0EEF3E002C0EAEAF3E076
:10111000849190E09F0104C080E090E020E030E006
:10112000FA0131832083089520918F033091900339
:101130002617370748F06115710539F42091E8004A
:101140002E772093E80001C0B901FC0120E0611571
:10115000710561F1809188038823D9F18530D9F137
:101160008091E80083FD39C08091E80082FD2BC0AA
:101170008091E80080FFEBCF8091F20090E0611554
:10118000710551F08830910538F421912093F100D8
:10119000615071090196F3CF21E0089709F020E032
:1011A0008091E8008E778093E800D1CF2111D2CFD3
:1011B0000AC080918803882361F0853061F08091B6
:1011C000E80083FD0AC08091E80082FFF2CF80E052
:1011D000089582E0089583E0089581E008952091C4
:1011E0008F03309190032617370748F0611571057A
:1011F00039F42091E8002E772093E80001C0B9016E
:10120000FC0120E06115710579F180918803882344
:1012100009F43DC0853009F43CC08091E80083FDAD
:101220003AC08091E80082FD2CC08091E80080FFE8
:10123000E9CF8091F20090E06115710559F0883096
:10124000910540F424912093F10031966150710989
:101250000196F2CF21E0089709F020E08091E800A4
:101260008E778093E800CECF2111CFCF0AC0809136
:101270008803882361F0853061F08091E80083FD68
:101280000AC08091E80082FFF2CF80E0089582E0FA
:10129000089583E0089581E00895982F953068F5CA
:1012A0009093E900981739F07091EC002091ED00CF
:1012B0005091F00003C0242F762F50E021FD02C092
:1012C0009F5FECCF3091EB003E7F3093EB0030918D
:1012D000ED003D7F3093ED003091EB0031603093B5
:1012E000EB007093EC002093ED005093F000209100
:1012F000EE0027FDE5CF80E008958F708093E90030
:1013000081E008950F931F93CF93DF93062FEC0195
:1013100010E0101771F19881911103C01F5F25969D
:10132000F8CF2C81A981BA816B81892F8F7085308C
:1013300010F080E01FC0223010F442E001C046E00F
:10134000E8E0F0E020E0EA17FB0720F42F5FEE0F63
:10135000FF1FF9CF2295207F422B6295660F660F03
:10136000607C991F9927991F692B97DF8111D6CF30
:10137000E0CF81E0DF91CF911F910F91089580918F
:10138000890387FF11C08091E80082FD05C080912C
:1013900088038111F8CF11C08091E8008B770BC0D2
:1013A00080918803882349F08091E80080FFF8CF7E
:1013B0008091E8008E778093E80008952091E40002
:1013C0003091E50095E64091EC00842F817040FF5C
:1013D00023C08091E80080FD1DC080918803882390
:1013E00099F0853099F08091EB0085FD11C0409116
:1013F000E4005091E5002417350729F3915011F0CE
:101400009A01E1CF84E0089582E0089583E0089591
:1014100081E0089580E008954091E80042FFDDCF2B
:10142000089555D057D0E0EEF0E080818160808350
:10143000E8EDF0E080818F77808319BCE3E6F0E08F
:1014400080818160808310928703089540D042D0CC
:101450008091D8008F778093D8008091D8008068E1
:101460008093D8008091D8008F7D8093D80019BCDC
:1014700082E089BD09B400FEFDCF1092880310926E
:101480008403109286031092850342E060E080E0BE
:1014900004DF8091E1008E7F8093E1008091E20083
:1014A00081608093E2008091E20088608093E20096
:1014B0008091E0008E7F8093E0000895E3E6F0E005
:1014C00080818E7F808381E080938703BFCF1092DD
:1014D000E20008951092E10008951F920F920FB656
:1014E0000F9211242F933F934F935F936F937F93AA
:1014F0008F939F93AF93BF93EF93FF938091E100FE
:1015000082FF0AC08091E20082FF06C08091E10064
:101510008B7F8093E10030D28091E10080FF17C083
:101520008091E20080FF13C08091E2008E7F809363
:10153000E2008091E20080618093E2008091D80017
:1015400080628093D80019BC1092880303D88091E0
:10155000E10084FF2FC08091E20084FF2BC019BC02
:1015600082E089BD09B400FEFDCF8091D8008F7D57
:101570008093D8008091E1008F7E8093E10080917C
:10158000E2008F7E8093E2008091E2008160809390
:10159000E20080918403882311F084E007C08091E9
:1015A000E30087FD02C081E001C083E080938803EF
:1015B0000E94A9028091E10083FF27C08091E20090
:1015C00083FF23C08091E100877F8093E10082E068
:1015D00080938803109284038091E1008E7F809332
:1015E000E1008091E2008E7F8093E2008091E20032
:1015F00080618093E20042E060E080E04EDE809116
:10160000F00088608093F000B7D1FF91EF91BF9117
:10161000AF919F918F917F916F915F914F913F918A
:101620002F910F900FBE0F901F9018951F920F9241
:101630000FB60F9211242F933F934F935F936F93A5
:101640007F938F939F93AF93BF93CF93DF93EF934A
:10165000FF93C091E900CF708091EC00D82FD1703A
:1016600080FDD0E81092E9008091F000877F8093A0
:10167000F00078941ED01092E9008091F00088600C
:101680008093F000CD2BCF70C093E900FF91EF91D4
:10169000DF91CF91BF91AF919F918F917F916F918A
:1016A0005F914F913F912F910F900FBE0F901F9020
:1016B00018951F93CF93DF93CDB7DEB7AA970FB6D8
:1016C000F894DEBF0FBECDBFE9E8F3E08091F100F2
:1016D000819323E0E139F207C9F70E94AF028091BC
:1016E000E80083FF31C18091890390918A0395308E
:1016F00009F483C030F49130A9F168F0933091F18E
:1017000023C1983009F4EFC0993009F4FBC096303A
:1017100009F01AC194C0803821F0823809F014C150
:1017200008C08091850390918603992389F0826097
:101730000FC080918D038F70853008F005C18093B4
:10174000E9008091EB0085FB882780F91092E90081
:101750009091E800977F9093E8008093F1001092B9
:10176000F100CCC0282F2D7F09F0EEC0882319F09E
:10177000823061F0E9C080918B03813009F0E4C0D0
:10178000933009F080E0809386032EC080918B0314
:1017900081112AC080918D038F702FEF280F243084
:1017A00008F0D2C08093E9002091EB0020FF1CC01C
:1017B000933021F48091EB00806214C09091EB0093
:1017C00090619093EB0021E030E0A90102C0440F4A
:1017D000551F8A95E2F74093EA001092EA00809143
:1017E000EB0088608093EB001092E9008091E800A4
:1017F000877F8093E800C3DDA7C08111A5C0109149
:101800008B031F778091E3008078812B8093E30026
:101810008091E800877F8093E800B1DD8091E80047
:1018200080FFFCCF8091E30080688093E30011117A
:1018300002C082E001C083E08093880385C08058A5
:10184000823008F081C080918B0390918C038C3D95
:1018500053E0950771F583E08A838AE289834FB765
:10186000F894DE01139620E03EE051E2E32FF0E031
:1018700050935700E49120FF03C0E295EF703F5F63
:10188000EF708E2F90E0EA3010F0C79601C0C0963E
:101890008D939D932F5F243149F74FBF8091E800CE
:1018A000877F8093E8006AE270E0CE0101963CDC1D
:1018B00014C060918D0370918E03AE014F5F5F4F36
:1018C00003DCBC01892B09F43FC09091E800977FAD
:1018D0009093E80089819A8182DC8091E8008B777F
:1018E0008093E80031C0803879F58091E800877FE7
:1018F0008093E800809184038093F1008091E80058
:101900008E7777CF811120C080918B0390918C03CB
:1019100099270297CCF48091E800877F8093E800B4
:1019200080918B03809384032ADD8091840381114D
:1019300006C08091E30087FD02C081E001C084E021
:10194000809388030E94AB028091E80083FF0AC065
:101950008091E800877F8093E8008091EB008062AF
:101960008093EB00AA960FB6F894DEBF0FBECDBFF2
:10197000DF91CF911F9108950895CF9380918803AF
:10198000882399F0C091E900CF709091EC00892FE5
:10199000817090FD80E8C82B1092E9008091E800EA
:1019A00083FD87DECF70C093E900CF910895CF9378
:1019B000DF93EC01FC0170968BE0DF011D928A95AC
:1019C000E9F782E08C83898783E08E8761E0CE012E
:1019D000019698DC882361F061E0CE01069692DCE6
:1019E000882331F061E0CE010B96DF91CF918ACC54
:1019F00080E0DF91CF9108950F931F93CF932091B3
:101A000088032430F9F4FC01048915892689378973
:101A1000012B022B032BB1F0C62F81818F70809395
:101A2000E9008091E80085FF04C0C093F10080E0E8
:101A30000AC08091E8008E778093E800BFDC88239D
:101A4000A1F301C082E0CF911F910F910895CF9330
:101A5000C82FFB01682F84859585CEDF811103C0D7
:101A60008C2F90E002C08FEF9FEFCF9108952091CF
:101A70008803243021F5FC014489558966897789DA
:101A8000452B462B472BD9F081818F708093E9003D
:101A90008091F200882389F09091E8008091E8001D
:101AA0008E778093E80095FD08C088DC811108C01E
:101AB0008091E8008E778093E80080E0089582E0CE
:101AC000089520918803243089F4FC0144895589C4
:101AD00066897789452B462B472B41F021812F7052
:101AE0002093E9002091E80020FDC1CF08952091C6
:101AF0008803243019F08FEF9FEF0895FC0144898B
:101B0000558966897789452B462B472BA1F386811A
:101B10008F708093E9008091E80082FFECCF809184
:101B2000F200882321F02091F10030E002C02FEF75
:101B30003FEF8091F200811105C08091E8008B7722
:101B40008093E800C9010895FC0184859585CFDF65
:101B500097FF02C08EEF9FEF0895FB012EE0DB019F
:101B60001D922A95E9F723E0238327E23DE03187A0
:101B7000208724EA3DE0338722879587848708956C
:101B800008950895CF93DF93EC018091E80083FFDF
:101B9000A7C0888190E020918D0330918E03281793
:101BA000390709F09DC080918A03813261F020F4E9
:101BB000803209F43EC094C0823209F46CC0833292
:101BC00009F47EC08DC080918903813A09F088C0F4
:101BD0008091E800877F8093E8008091E80080FF93
:101BE000FCCF8C899D89AE89BF898093F100492FF4
:101BF0005A2F6B2F77274093F100AD016627772787
:101C00004093F1008B2F9927AA27BB278093F100DF
:101C1000888D8093F100898D8093F1008A8D809367
:101C2000F1008091E8008E778093E800DF91CF91FA
:101C3000A6CB80918903813209F052C08091E800DF
:101C4000877F8093E8008091E80082FD05C0809145
:101C500088038111F8CF44C03091F1002091F10048
:101C60009091F1008091F1003C8B2D8B9E8B8F8B9E
:101C70008091F100888F8091F100898F8091F1002F
:101C80008A8F8091E8008B778093E80078DBCE0123
:101C9000DF91CF9175CF80918903813209F58091D1
:101CA000E800877F8093E8006ADB80918B03909146
:101CB0008C03998B888BCE01DF91CF910C94B3026A
:101CC00080918903813261F48091E800877F80935D
:101CD000E80055DB60918B03CE01DF91CF9151CFAE
:101CE000DF91CF9108950024552704C0080E591F95
:101CF000880F991F009729F076956795B8F37105BD
:101D0000B9F7802D952F089597FB072E16F40094B0
:101D100006D077FD08D00BD007FC05D03EF4909597
:101D200081959F4F0895709561957F4F0895AA1BE7
:101D3000BB1B51E107C0AA1FBB1FA617B70710F0B6
:101D4000A61BB70B881F991F5A95A9F780959095E8
:101D5000BC01CD010895DC0101C06D93415050409C
:101D6000E0F70895FB01DC014150504030F08D91C7
:101D70000190801919F40020B9F7881B990B089578
:101D8000CF93DF93EC012B8120FF33C026FF0AC0E5
:101D90002F7B2B838E819F8101969F838E838A81E7
:101DA00090E029C022FF0FC0E881F9818081082ED0
:101DB000000C990B009719F420622B831AC03196FE
:101DC000F983E8830EC0EA85FB85099597FF09C072
:101DD0002B81019611F080E201C080E1822B8B8380
:101DE00008C02E813F812F5F3F4F3F832E8399276D
:101DF00002C08FEF9FEFDF91CF9108950F931F9354
:101E0000CF93DF93FB01238121FD03C08FEF9FEF71
:101E10002CC022FF16C0468157812481358142178C
:101E2000530744F4A081B1819D012F5F3F4F31835F
:101E300020838C93268137812F5F3F4F3783268302
:101E400014C08B01EC01FB010084F185E02D0995A4
:101E5000892BE1F6D80116968D919C9117970196E2
:101E600017969C938E931697CE01DF91CF911F9179
:101E70000F910895A0E0B0E0EFE3FFE0F9C2AE01FA
:101E80004B5F5F4FFA0161917191AF0180919303B4
:101E9000909194038BD0E2E007C3A0E0B0E0E2E5CC
:101EA000FFE0E4C2AE01495F5F4FDA016D917D91C1
:101EB000AD0101E913E0F80182819381DC01139601
:101EC0002C911397286013962C9370D0D8011296FA
:101ED000ED91FC9113972381277F2383E4E0E2C2F5
:101EE000609193037091940389CF0F931F93CF93C5
:101EF000DF93E0919303F0919403238121FF1BC0B2
:101F00008C01D0E0C0E0F80181918F0160919303D2
:101F100070919403DB011896ED91FC911997882339
:101F200031F00995892B79F3DFEFCFEFECCF8AE021
:101F30000995892B19F08FEF9FEF02C08D2F9C2FF1
:101F4000DF91CF911F910F9108950F931F93CF931E
:101F5000DF938C01E0919303F0919403838181FFDF
:101F60001BC0D0E0C0E0F8018491609193037091B0
:101F70009403DB011896ED91FC911997882341F0A9
:101F80000995892B11F0DFEFCFEF0F5F1F4FEBCFDC
:101F90008AE00995892B19F08FEF9FEF02C08D2FF2
:101FA0009C2FDF91CF911F910F910895ABE0B0E08E
:101FB000EBEDFFE04DC26C017B018A01FC01178251
:101FC0001682838181FFC0C1CE0101963C01F601DA
:101FD0009381F70193FD859193FF81917F01882380
:101FE00009F4AEC1853239F493FD859193FF819157
:101FF0007F01853221F4B60190E000DFE8CF912C1B
:10200000212C312CFFE1F315E0F08B3279F038F41C
:10201000803279F08332A9F4232D206110C08D32F3
:1020200059F0803371F4232D216009C0832D826023
:10203000382EE32DE46022C0F32DF86025C0322E47
:1020400027C037FC2DC020ED280F2A3088F436FE3B
:1020500006C0892D6AE0F3D1922E980E19C0822D08
:102060006AE0EDD1222E280E832D8062382E10C01A
:102070008E3231F436FC64C1E32DE0643E2E08C09C
:102080008C3621F4F32DF0683F2E02C0883641F4DF
:10209000F70193FD859193FF81917F018111B2CF6B
:1020A000982F9F7D9554933028F40C5F1F4F2FE39A
:1020B00029830DC0833631F0833771F0833509F001
:1020C00055C020C0F801808189830E5F1F4F88248E
:1020D0008394912C530112C02801F2E04F0E511C41
:1020E000F801A080B18036FE03C0692D70E002C007
:1020F0006FEF7FEFC50138D14C018201F32DFF77DF
:102100003F2E15C0280122E0420E511CF801A0808C
:10211000B18036FE03C0692D70E002C06FEF7FEF23
:10212000C50117D14C01F32DF0683F2E820133FC1D
:1021300019C0822D90E088169906A0F4B60180E2BD
:1021400090E05CDE2A94F5CFF50137FC859137FEEF
:1021500081915F01B60190E051DE21102A9421E0C7
:10216000821A91088114910479F7E1C0843611F044
:10217000893639F5F80137FE07C0608171818281A7
:1021800093810C5F1F4F08C060817181072E000C86
:10219000880B990B0E5F1F4FF32DFF763F2E97FF95
:1021A00009C090958095709561957F4F8F4F9F4F97
:1021B000F0683F2E2AE030E0A301E1D0882E861897
:1021C00044C0853731F4232D2F7EB22E2AE030E033
:1021D00025C0932D997FB92E8F36C1F018F488351C
:1021E00079F0AEC0803719F0883721F0A9C0E92F07
:1021F000E061BE2EB4FE0DC0FB2DF460BF2E09C001
:1022000034FE0AC0292F2660B22E06C028E030E036
:1022100005C020E130E002C020E132E0F801B7FE65
:1022200007C060817181828193810C5F1F4F06C05E
:102230006081718180E090E00E5F1F4FA3019FD00D
:10224000882E8618FB2DFF773F2E36FE0DC0232DDE
:102250002E7FA22E891458F434FE0BC032FC09C024
:10226000832D8E7EA82E05C0B82CA32C03C0B82CBD
:1022700001C0B92CA4FE0FC0FE01E80DF11D808144
:10228000803321F49A2D997EA92E09C0A2FE06C0A2
:10229000B394B39404C08A2D867809F0B394A3FC58
:1022A00010C0A0FE06C0B21480F4280C922C9B181B
:1022B0000DC0B21458F4B60180E290E09FDDB394F3
:1022C000F8CFB21418F42B1802C0982C212CA4FEBD
:1022D0000FC0B60180E390E091DDA2FE16C0A1FC24
:1022E00003C088E790E002C088E590E0B6010CC02A
:1022F0008A2D867851F0A1FE02C08BE201C080E2F7
:10230000A7FC8DE2B60190E079DD891430F4B601C6
:1023100080E390E073DD9A94F8CF8A94F301E80D9E
:10232000F11D8081B60190E069DD8110F6CF222099
:1023300009F44DCEB60180E290E060DD2A94F7CF3B
:10234000F6018681978102C08FEF9FEF2B96E2E125
:102350009BC0FC010590615070400110D8F780953A
:1023600090958E0F9F1F0895FC0161507040019061
:102370000110D8F7809590958E0F9F1F0895FA0150
:10238000AA27283061F1203191F1E8946F936E7F94
:102390006E5F7F4F8F4F9F4FAF4FB1E040D0B4E0A3
:1023A0003ED0670F781F891F9A1FA11D680F791FE4
:1023B0008A1F911DA11D6A0F711D811D911DA11DF7
:1023C00022D009F468943F91062E000C3019000CBD
:1023D000000C3019305D3193CEF6CF010895462FB1
:1023E0004770405D4193B3E00FD0C9F7F6CF462F59
:1023F0004F70405D4A3318F0495D31FD40524193C2
:1024000002D0A9F7EACFB4E0A6959795879577957E
:102410006795BA95C9F700976105710508959B0105
:10242000AC010A2E06945795479537952795BA958E
:10243000C9F7620F731F841F951FA01D0895002404
:1024400080FD060E660F11F08695D1F7802D089558
:102450002F923F924F925F926F927F928F929F92B4
:10246000AF92BF92CF92DF92EF92FF920F931F93A2
:10247000CF93DF93CDB7DEB7CA1BDB0B0FB6F89453
:10248000DEBF0FBECDBF09942A88398848885F8493
:102490006E847D848C849B84AA84B984C884DF8004
:1024A000EE80FD800C811B81AA81B981CE0FD11DE8
:1024B0000FB6F894DEBF0FBECDBFED010895F894BE
:0224C000FFCF4C
:1024C200FFFF0083100000010410000001820800D9
:1024D20000010000000000000000000000010025D3
:1024E2002E3278001B5B25693B2569480053544115
:1024F200484C202D2D204C696E6520252E326920F6
:10250200436F6C756D6E20252E3269202D2D2000B3
:10251200524541442D575249544500524541442D9C
:102522004F4E4C59002020005052455353204354E3
:10253200524C2D4720464F522048454C50001B5BC1
:102542003B48001B5B4A00302E302E31004D454D7A
:102552004F52593A20004F4B2028324B42290D004E
:10256200494E56414C49442049443B20554E414234
:102572004C4520544F20434F4D4D554E49434154F5
:10258200452057495448204652414D2E0D0053458F
:102592005249414C3A20001B5B44003E20005550FA
:1025A20044415445000D0A0D0A4E6F7420656E7445
:1025B2006572696E67206669726D776172652075F2
:1025C2007064617465206D6F64652E0D00506173D7
:1025D20073776F72642028302D3135206368617201
:1025E200616374657273293A2000454E4352595013
:1025F20054494F4E2044495341424C45442E0D000C
:1026020053455454494E472050415353574F524417
:1026120020544F3A20272573270D0A001B5B4100E7
:0C2622001B5B42001B5B43001B5B450080
:00000001FF
