:1000000019C2000033C2000031C200002FC200003C
:100010002DC200002BC2000029C2000027C2000030
:1000200025C2000023C2000021C200000C943A0A3D
:100030000C94E40A1BC2000019C2000017C20000A1
:1000400015C2000013C2000011C200000FC2000060
:100050000DC200000BC2000009C2000007C2000070
:1000600005C2000003C2000001C20000FFC1000081
:10007000FDC100000D0A507265737320616E792016
:100080006B657920746F2072657475726E20746F61
:100090002074686520656469746F722E0D0A000D06
:1000A0000A0D0A434F4D4D414E44533A0D0A0D0A75
:1000B0004354524C2D472020202048454C500D0AD7
:1000C0004354524C2D4C202020205245465245533B
:1000D000482053435245454E0D0A4354524C2D5728
:1000E00020202020544F47474C4520575249544523
:1000F000204D4F44450D0A4354524C2D462020209C
:1001000020544F47474C4520464C4153484C4947A3
:100110004854204D4F44450D0A4354524C2D502015
:1001200020202053455420454E4352595054494FA6
:100130004E2050415353574F52440D0A4354524C92
:100140002D592020202055504441544520464952E5
:100150004D574152450D0A000D0A546F20656E74CB
:100160006572206669726D77617265207570646171
:100170007465206D6F64652C20747970652055500E
:10018000444154452028696E20616C6C2063617085
:1001900073292062656C6F772C0D0A616E64207480
:1001A0006865206465766963652077696C6C206595
:1001B0006E74657220555342204446552075706414
:1001C000617465206D6F64652E0D0A0D0A546F20F1
:1001D00072657475726E20746F206E6F726D616CD3
:1001E000206D6F64652073696D706C7920756E7019
:1001F0006C756720616E64207468656E20706C7524
:10020000672D696E20746865206465766963652E64
:100210000D0A0D0A000D0A496620796F7520736575
:100220007420612070617373776F72642C20616C2D
:100230006C20746578742077696C6C20626520642A
:100240006563727970746564207573696E67207474
:100250006861740D0A70617373776F726420616EE8
:1002600064206E657720746578742077696C6C20E3
:10027000626520656E637279707465642075736958
:100280006E6720746861742070617373776F726435
:100290002E0D0A0D0A5768656E20796F75207265FC
:1002A000636F6E6E6563742074686520646576693B
:1002B00063652C207072657373204354524C2D502B
:1002C00020616761696E20616E642072652D656EC4
:1002D0007465720D0A796F75722070617373776F30
:1002E00072642E20507265737320454E544552201F
:1002F000746F20757365206E6F20656E6372797000
:1003000074696F6E2F64656372797074696F6E2E95
:100310000D0A0D0A00535441484C204649524D578E
:10032000415245205625730D0A436F7079726967F3
:100330006874202863292032303231204C6F6E657A
:100340002044796E616D69637320436F72706F72C0
:100350006174696F6E2E20416C6C207269676874DD
:10036000732072657365727665642E0D0A0D0A003E
:10037000380353007400610068006C0020005300D3
:100380006500630075007200650020005300740072
:100390006F00720061006700650020004400650086
:1003A0007600690063006500000034034C006F00B4
:1003B0006E0065002000440079006E0061006D0051
:1003C000690063007300200043006F00720070003A
:1003D0006F0072006100740069006F006E00000021
:1003E0000403090409023E00020100C032090400AE
:1003F0000001020201000524001001042402060588
:1004000024060001070582030800FF090401000219
:100410000A0000000705040210000507058302100A
:1004200000051201100102000008C016E1050100DC
:100430000102DC0111241FBECFEFD4E0DEBFCDBF2F
:1004400012E0A0E0B1E0ECE0F4E202C005900D9211
:10045000AC36B107D9F723E0ACE6B2E001C01D929B
:10046000A739B207E1F739D00C940412C9CD811134
:1004700004C01092800018B8089590E090938B000B
:1004800080938A0089E28093800082E080938100DB
:10049000089582E091E00E94240D0C94830C8091D9
:1004A000000190910101089584B7877F84BF0FB642
:1004B000F894A89580916000886180936000109204
:1004C00060000FBE80E890E00FB6F8948093610062
:1004D000909361000FBEBFD761C5E6DF6DE672E0A5
:1004E00082E091E00E94710D8DE692E0909394037A
:1004F0008093930390939203809391033D9A82E3B8
:10050000B6DF789464D166D382E091E00E943C0D1E
:100510009093010180930001BCDFF5CF0895089509
:1005200082E091E00C949D0C82E091E00C94860DA9
:10053000FC018089817080936C02A5C0FF920F93AB
:100540001F93CF93DF93D0E0C0E091E2F92E0FE14B
:1005500011E0FE01F092570084911F928F931F9338
:100560000F930E94E80E21960F900F900F900F901E
:10057000C330D10571F78DE290E00E941C0FCEE0F0
:10058000D0E081E2F82E0FE111E0FE01F092570079
:1005900084911F928F931F930F930E94E80E2196D0
:1005A0000F900F900F900F90C831D10571F7DF9128
:1005B000CF911F910F91FF9008951F9281E08F932B
:1005C0001F9288E18F9384E291E09F938F930E9422
:1005D000E80E809180038F9380917F038F938091A9
:1005E0007E038F9380917D038F938DE291E09F93A3
:1005F0008F930E94E80E8DB79EB70C960FB6F894B5
:100600009EBF0FBE8DBF80917C03882349F180E59A
:1006100091E09F938F930E94E80E0F900F9085E6D4
:1006200091E09F938F930E94E80E809180038F93B7
:1006300080917F038F9380917E038F9380917D03C0
:100640008F9384E291E09F938F930E94E80E8DB781
:100650009EB708960FB6F8949EBF0FBE8DBF19CFF8
:100660008BE591E0D6CF262F30917B03332349F0E1
:1006700060E071E00E94430EFC01E558FD4F80816F
:100680002827822F08957F928F929F92AF92BF92D8
:10069000CF92DF92EF92FF920F931F93CF93DF934E
:1006A000CDB7DEB7C055D1090FB6F894DEBF0FBE87
:1006B000CDBF83DF1F928BE38F931F9288E18F93CF
:1006C00084E291E09F938F930E94E80E88E691E088
:1006D0009F938F930E94E80E8AE0C9DE0FB6F894CC
:1006E000DEBF0FBECDBFF12CE12C10E000E077247F
:1006F000739484E2A82E81E0B82E40E550E0B70163
:10070000CE01019657D40F5F1F4F1F927F921F9308
:100710000F93BF92AF920E94E80EFE0131964F01F7
:100720000F900F900F900F900F900F90D12CC12C25
:10073000F40161914F01C6018E0D9F1D94DF609100
:1007400093037091940390EE980F9F35E8F590E035
:100750000E94B80EFFEFCF1ADF0A80E5C816D10459
:1007600039F790E5E90EF11C0731110531F680915A
:1007700080038F9380917F038F9380917E038F936B
:1007800080917D038F9384E291E09F938F930E94E9
:10079000E80E0F900F900F900F900F900F90C05B8E
:1007A000DF4F0FB6F894DEBF0FBECDBFDF91CF9104
:1007B0001F910F91FF90EF90DF90CF90BF90AF907F
:1007C0009F908F907F9008958EE290E0C1CF8EE74A
:1007D00091E09F938F930E94E80E83E891E09F93AE
:1007E0008F930E94E80E81E090E0909380038093C5
:1007F0007F0390937E0380937D030F900F900F9063
:100800000F9041CF809183038A3F19F410928303A4
:1008100008958AEF80938303089582E090E0909397
:100820001E0180931D018EE791E09F938F930E949C
:10083000E80E83E891E09F938F930E94E80E87E88B
:1008400091E09F938F9385E193E09F938F930E9414
:10085000F90E8DE891E09F938F930E94E80EE9D303
:100860002DB73EB7265F3F4F0FB6F8943EBF0FBE81
:100870002DBF8823A9F086E991E00E94210F8EEC1C
:1008800091E09F938F930E94E80E58DE8FE990E0ED
:100890000E944D0F0F900F9084E790E00C944D0F45
:1008A00080EA91E0EACF0F931F93CF93DF9300D0BC
:1008B00000D0CDB7DEB7FC014081518162817381E8
:1008C000DB01CA012DE0880F991FAA1FBB1F2A95C3
:1008D000D1F784279527A627B727AC01BD0131E1C1
:1008E00076956795579547953A95D1F7842795273B
:1008F000A627B727AC01BD0115E0440F551F661FA1
:10090000771F1A95D1F78A019B01082719272A27F3
:100910003B270083118322833383C901B8010F90E1
:100920000F900F900F90DF91CF911F910F9108952D
:10093000AF92BF92CF92DF92EF92FF920F931F93ED
:10094000CF93DF936C015B01AB014F5F5F4F70E0B2
:1009500060E00E946A0ED0E0C0E087EDE82E81E002
:10096000F82E80919103909192030E947A0E8C014F
:100970008D309105C9F18830910519F08F379105B7
:1009800021F52197F601EC0FFD1F1082FF92EF92E7
:100990000E94E80E80E290E00E941C0FFF92EF920E
:1009A0000E94E80EFF92EF920E94E80E0F900F90C7
:1009B0000F900F900F900F90D7FF02C0D0E0C0E0D3
:1009C000CA15DB0589F065DDCCCF18161906A4F72A
:1009D00060919303709194030E94B80EF601EC0F9E
:1009E000FD1F00832196E8CFDF91CF911F910F91DA
:1009F000FF90EF90DF90CF90BF90AF900895CF938E
:100A0000DF93CDB7DEB728970FB6F894DEBF0FBEE1
:100A1000CDBF8EE791E09F938F930E94E80E83E80D
:100A200091E09F938F930E94E80E88E591E09F9359
:100A30008F930E94F90E8BED91E09F938F930E940C
:100A4000E80E67E070E0CE01019672DF6EED71E0B6
:100A5000CE0101960E94710E0FB6F894DEBF0FBE54
:100A6000CDBF892BB9F082E090E090931E01809376
:100A70001D0185EE91E00E94210F84E790E00E9425
:100A80004D0F28960FB6F894DEBF0FBECDBFDF9195
:100A9000CF91089593D4F8943FEF89E698E13150CF
:100AA00080409040E1F700C0000088E19CE00FB674
:100AB000F894A895809360000FBE90936000FFCFDC
:100AC0000F931F93CF93DF93CDB7DEB764970FB625
:100AD000F894DEBF0FBECDBF8EE791E09F938F935A
:100AE0000E94E80E83E891E09F938F930E94E80EA6
:100AF00085E192E00E944D0F8DE092E09F938F93ED
:100B00000E94E80E6FE070E08E010F5F1F4FC8017A
:100B10000FDF8EE991E00E94210F8EE991E00E94A3
:100B2000210F82E090E090931E0180931D010F90B1
:100B30000F900F900F900F900F90898181113AC004
:100B40008AE292E00E94210F10927B0384E790E0FA
:100B50000E944D0F8981882311F1F8010190002036
:100B6000E9F79F01F8012150310988E796E5A4E3F0
:100B7000B2E1E217F30759F5898B9A8BAB8BBC8BEB
:100B80000BE712E0CE0141968EDEF80161938F01F2
:100B9000F3E00B371F07B1F781E080937B03649686
:100BA0000FB6F894DEBF0FBECDBFDF91CF911F917E
:100BB0000F9108951F930F9380E492E09F938F937A
:100BC0000E94E80E0F900F900F900F90BFCF4191B1
:100BD0008427CFCF0F931F93CF93DF93809183030D
:100BE00046DC5DDCEC01181619060CF0D2C18091D0
:100BF0001D0190911E010297D9F481E090E090933D
:100C00001E0180931D0183E891E09F938F930E94C2
:100C1000E80E8EE791E09F938F930E94E80E0F906D
:100C20000F900F900F90DF91CF911F910F912BCDCF
:100C3000CB31D105B1F0CB35D105D1F0CC30D105D8
:100C400001F521DD80917F0390918003181619062C
:100C50000CF492C181E090E09093800380937F0335
:100C600031C181E090E09093820380938103EACFC9
:100C70008091810390918203019721F782E090E0B7
:100C8000F2CF80918103909182038230910509F027
:100C9000ACC01092820310928103C134D10579F562
:100CA00080917D0390917E03019790937E038093C2
:100CB0007D038CE592E09F938F930E94E80E0F9046
:100CC0000F90C634D105A1F580917D0390917E03EC
:100CD00020E530E03093800320937F031F922F9311
:100CE0009F938F9384E291E09F938F930E94E80EED
:100CF0000F900F900F900F900F900F90A3CFC234D2
:100D0000D10509F445C0C334D10509F04DC0809127
:100D10007F039091800301969093800380937F03DB
:100D200084E692E09F938F930E94E80E0F900F90BD
:100D3000E39709F087CF80917C03882309F482CF61
:100D400080917D0390917E03019760E570E08AD7E2
:100D5000C0917F03D09180032197C80FD91F84E6EB
:100D600086DB60E0CE017FDC682FCE014DD18EE2C4
:100D700090E00E941C0F87ED91E09F938F930E945B
:100D8000E80E83E090E090938203809381032AC071
:100D900080917D0390917E03019690937E038093D2
:100DA0007D0380E692E087CFC434D10569F0C83472
:100DB000D10509F086CF81E090E090938003809385
:100DC0007F038EE791E00BC080917F0390918003B9
:100DD00001979093800380937F0387ED91E09F9329
:100DE0008F93F6D70F900F902DCF8330910529F474
:100DF000109282031092810325CF892B09F022CF14
:100E0000C830D10521F0CF37D10509F03DC0809120
:100E10007C03882309F416CFC0917F03D09180030F
:100E200080917D0390917E039E0121503109309382
:100E3000800320937F03019760E570E013D722972A
:100E4000C80FD91F84E613DB60E0CE010CDC682FED
:100E5000CE01DAD0C7EDD1E0DF93CF93B9D78EE2E0
:100E600090E0EAD7DF93CF93B3D7DF93CF93B0D798
:100E7000DF93CF93ADD78DB79EB708960FB6F89492
:100E80009EBF0FBE8DBFDECEC031D10511F418DE7E
:100E9000D9CECD30D10549F588E692E09F938F9366
:100EA00097D781E090E09093800380937F038091B7
:100EB0007D0390917E03019690937E0380937D0342
:100EC0000F900F9080917D0390917E031816190664
:100ED0000CF459C081E090E090937E0380937D03F1
:100EE000DF91CF911F910F9168CBC630D10511F4DE
:100EF00089DCA8CEC730D10511F48FDCA3CEC9316F
:100F0000D10511F47CDD9ECE80917C03C731D105E3
:100F100049F4882319F010927C0394CE81E08093E9
:100F20007C0390CE8823F1F0609193037091940339
:100F3000CE011ED780917D0390917E03019760E5DD
:100F400070E090D600917F03109180030150110949
:100F5000080F191F84E68BDA6C2FC80184DB682F19
:100F6000C80152D080917F039091800301969093A5
:100F7000800380937F0366CE813591050CF4A2CF68
:100F800080E590E069CE48970CF4AACF87E190E025
:100F9000A3CFDF91CF911F910F91089587E084B97E
:100FA00081E58CBD289A08958EBD0DB407FEFDCF56
:100FB0008EB50895EF92FF920F931F93CF93DF9317
:100FC0007C01EB018A01289883E0EEDF8D2FECDFB6
:100FD0008C2FEADFE701F12CE12CE016F10644F05A
:100FE000289ADF91CF911F910F91FF90EF90089574
:100FF00080E0DADF89938FEFE81AF80AEECF2898BD
:1010000086E0D2DF289A08951F93CF93DF93D82FDD
:10101000192FC62FF4DF289882E0C6DF812FC4DFA6
:101020008D2FC2DF8C2FC0DF289ADF91CF911F91C7
:1010300008951F93CF93DF9328988FE9B5DF80E061
:10104000B3DF182F80E0B0DFD82F80E0ADDFC82FEE
:1010500080E0AADF982F143039F4DF3729F4C1304B
:1010600019F481E0913009F080E0289ADF91CF9166
:101070001F9108959C01DA01832F992782309105F1
:1010800029F18330910549F0019791F482E190E0D4
:1010900022E234E02D933C930895C9019927213031
:1010A00061F08230910579F0E0EEF3E0892B39F0C0
:1010B00090E080E030E020E0EDCFEAEAF3E08491D8
:1010C00090E09F01E7CFE0E7F3E0F9CF8EE390E017
:1010D00024EE33E0DFCFFC01CB0120918E03309171
:1010E0008F032617370790F0009729F42091E80026
:1010F0002E772093E80040E0009751F4411108C09A
:101100008091E80082FF30C080E00895C901F3CFEC
:10111000209187032223A1F12530A1F12091E8003D
:1011200023FD2CC02091E80022FDEACF2091E800A9
:1011300020FFE2CF2091F20030E0009719F0283034
:10114000310558F041E02830310509F040E02091A8
:10115000E8002E772093E800CFCF41914093F10033
:1011600001972F5F3F4FE9CF80918703882341F09C
:10117000853041F08091E80083FFC2CF81E008957F
:1011800082E0089583E00895FC01CB0120918E0355
:1011900030918F032617370790F0009729F420919C
:1011A000E8002E772093E80040E0009751F44111C9
:1011B00008C08091E80082FF31C080E00895C90135
:1011C000F3CF209187032223A9F12530A9F12091A3
:1011D000E80023FD2DC02091E80022FDEACF2091F8
:1011E000E80020FFE2CF2091F20030E0009719F0F4
:1011F0002830310558F041E02830310509F040E051
:101200002091E8002E772093E800CFCF44914093BF
:10121000F100319601972F5F3F4FE8CF8091870310
:10122000882341F0853041F08091E80083FFC1CFF1
:1012300081E0089582E0089583E00895982F953025
:1012400028F08F708093E90081E008959093E90081
:10125000242F762F50E0981731F07091EC002091F8
:10126000ED005091F00021FD02C09F5FE8CF30916A
:10127000EB003E7F3093EB003091ED003D7F3093EB
:10128000ED003091EB0031603093EB007093EC0097
:101290002093ED005093F0002091EE0027FDE5CF64
:1012A00080E008950F931F93CF93DF93162FEC01E7
:1012B00000E0011302C081E00BC02881211103C0AE
:1012C0000F5F2596F6CF822F8F70853030F080E04B
:1012D000DF91CF911F910F9108959C8142E0923050
:1012E00008F046E0E981FA8168E070E090E06E176E
:1012F0007F0780F09295907F492B6B816295660FF6
:10130000660F607C221F2227221F622B97DF81112C
:10131000D7CFDDCF9F5F660F771FE9CF809188031E
:1013200087FF13C08091E80082FF06C08091E8002B
:101330008B778093E80004C0809187038111F2CFFE
:101340000895809187038823D9F38091E80080FF76
:10135000F8CF8091E8008E77ECCF2091E4003091B7
:10136000E50095E6A9012091EC00822F817020FF15
:1013700006C08091E80080FF06C080E008952091BB
:10138000E80022FD1AC080918703882389F0853008
:1013900089F08091EB0085FD0FC02091E400309131
:1013A000E50042175307F9F29150E1F684E0089501
:1013B00082E0089583E0089581E0089555D057D0E4
:1013C000E0EEF0E0808181608083E8EDF0E08081F4
:1013D0008F77808319BCE3E6F0E0808181608083B1
:1013E00010929003089540D042D08091D8008F771A
:1013F0008093D8008091D80080688093D800809135
:10140000D8008F7D8093D80019BC82E089BD09B4D3
:1014100000FEFDCF10928703109286031092840382
:101420001092850342E060E080E008DF8091E100F7
:101430008E7F8093E1008091E20081608093E200E2
:101440008091E20088608093E2008091E0008E7FCE
:101450008093E0000895E3E6F0E080818E7F808352
:1014600081E080939003BFCF1092E2000895109224
:10147000E10008951F920F920FB60F9211242F933F
:101480003F934F935F936F937F938F939F93AF930C
:10149000BF93EF93FF938091E10082FF0AC0809198
:1014A000E20082FF06C08091E1008B7F8093E10023
:1014B00029D28091E10080FF17C08091E20080FF77
:1014C00013C08091E2008E7F8093E2008091E20061
:1014D00080618093E2008091D80080628093D80080
:1014E00019BC109287031BD88091E10084FF28C0AB
:1014F0008091E20084FF24C019BC82E089BD09B458
:1015000000FEFDCF8091D8008F7D8093D800809120
:10151000E1008F7E8093E1008091E2008F7E8093D6
:10152000E2008091E20081608093E2008091860376
:10153000882309F441C084E0809387030E948E02CF
:101540008091E10083FF27C08091E20083FF23C0E8
:101550008091E100877F8093E10082E080938703A0
:10156000109286038091E1008E7F8093E10080914C
:10157000E2008E7F8093E2008091E20080618093A0
:10158000E20042E060E080E059DE8091F000886097
:101590008093F000B7D1FF91EF91BF91AF919F91F0
:1015A0008F917F916F915F914F913F912F910F900C
:1015B0000FBE0F901F9018958091E30087FD02C029
:1015C00081E0BACF83E0B8CF1F920F920FB60F928F
:1015D00011242F933F934F935F936F937F938F9338
:1015E0009F93AF93BF93CF93DF93EF93FF93D091EC
:1015F000E900DF708091EC00C82FC17080FDC0E869
:101600001092E9008091F000877F8093F000789439
:101610001ED01092E9008091F00088608093F00065
:10162000CD2BCF70C093E900FF91EF91DF91CF9167
:10163000BF91AF919F918F917F916F915F914F91EA
:101640003F912F910F900FBE0F901F9018951F93F1
:10165000CF93DF93CDB7DEB7AA970FB6F894DEBF6E
:101660000FBECDBF88E893E0FC0101962091F10008
:10167000208323E080399207B9F70E949402809179
:10168000E80083FF10C08091880390918903953012
:1016900009F4C1C000F5292F2D7F213009F488C03D
:1016A000992309F45DC08091E80083FF0AC080910E
:1016B000E800877F8093E8008091EB008062809350
:1016C000EB00AA960FB6F894DEBF0FBECDBFDF9138
:1016D000CF911F910895983009F4D4C0993009F43E
:1016E000DEC0963001F780588230E8F680918A0398
:1016F00090918B038C3D23E0920709F0AEC083E00C
:101700008A838AE289834FB7F894DE01139620E03A
:101710003EE051E2E32FF0E050935700849120FF28
:1017200003C082958F703F5F8F708A3008F493C03A
:10173000895C90E08D939D932F5F243159F74FBFC3
:101740008091E800877F8093E8006AE270E0CE0134
:101750000196C1DC8091E8008B778093E800A3CFED
:10176000803899F0823809F09ECF80918C038F7079
:10177000853008F098CF8093E9008091EB0085FBDD
:10178000882780F91092E90006C080918503909126
:101790008403911182609091E800977F9093E80014
:1017A0008093F1001092F1008091E8008E77A6C03E
:1017B000882309F493C0823009F075CF80918A03A1
:1017C000811197C080918C038F702FEF280F2430E8
:1017D00008F069CF8093E9002091EB0020FF89C0D9
:1017E000933031F48091EB0080628093EB0081C0F4
:1017F0009091EB0090619093EB0021E030E001C00C
:10180000220F8A95EAF72093EA001092EA0080916D
:10181000EB008860EACF811146CF10918A031F77D1
:101820008091E3008078812B8093E3008091E80031
:10183000877F8093E80072DD8091E80080FFFCCF15
:101840008091E30080688093E30082E0111183E0DF
:101850008093870328CF805D6CCF60918C0370915B
:101860008D03AE014F5F5F4F05DCBC01892B09F48E
:101870001ACF8091E800877F8093E80089819A8160
:1018800083DC68CF803809F00ECF8091E800877F35
:101890008093E800809186038093F10085CF8111C9
:1018A00002CF90918A03923008F0FDCE8091E8003B
:1018B000877F8093E8009093860330DD80918603D4
:1018C000882311F084E005C08091E30087FDFACF02
:1018D00081E0809387030E949002E5CE80918A0385
:1018E000813009F0E0CE81E0933009F080E0809310
:1018F00084031092E9008091E800877F8093E800DC
:101900000DDDD1CE0895CF9380918703882399F080
:10191000C091E900CF709091EC00892F817090FD0B
:1019200080E8C82B1092E9008091E80083FD8FDEEB
:10193000CF70C093E900CF910895CF93DF93EC016E
:10194000FC0170968BE0DF011D928A95E9F782E039
:101950008C83898783E08E8761E0CE010196A2DCCB
:10196000882361F061E0CE0106969CDC882331F08B
:1019700061E0CE010B96DF91CF9194CC80E0DF91B6
:10198000CF910895CF93FC01C62F809187038430B7
:10199000F1F484899589A689B789892B8A2B8B2BA9
:1019A000B1F081818F708093E9008091E80085FF1C
:1019B00005C0C093F10080E0CF9108958091E800C8
:1019C0008E778093E800C9DC882399F3F5CF82E015
:1019D000F3CFCF93C82FFB01682F84859585D2DF85
:1019E000811104C08C2F90E0CF9108958FEF9FEF6D
:1019F000FBCFFC0180918703843021F58489958990
:101A0000A689B789892B8A2B8B2BE1F081818F7076
:101A10008093E9008091F200811102C080E0089576
:101A20009091E8008091E8008E778093E80095FD22
:101A3000F5CF93DC811107C09091E8009E779093D9
:101A4000E800089582E00895FC01809187038430C6
:101A500091F484899589A689B789892B8A2B8B2B48
:101A600051F081818F708093E9008091E80080FFC0
:101A700002C0CF01BECF0895FC018091870384305E
:101A800019F08FEF9FEF089584899589A689B7890A
:101A9000892B8A2B8B2BA9F386818F708093E90089
:101AA0008091E80082FFEDCF8091F200882369F0F9
:101AB0008091F10090E02091F200211105C0209169
:101AC000E8002B772093E80008958FEF9FEFF3CF86
:101AD000FC0184859585D0DF97FF02C08EEF9FEFD4
:101AE0000895FB012EE0DB011D922A95E9F723E022
:101AF000238329EE3CE03187208728E63DE03387C9
:101B0000228795878487089508950895CF93DF935A
:101B1000EC018091E80083FF13C0288180918C0341
:101B200090918D032817190659F480918903823208
:101B300009F482C040F4803209F44CC08132A9F02B
:101B4000DF91CF9108958332D9F780918803813254
:101B5000B9F78091E800877F8093E800DFDB609130
:101B60008A03CE01DF91CF91D0CF80918803813A53
:101B700039F78091E800877F8093E8008091E80042
:101B800080FFFCCF8C899D89AE89BF898093F1004D
:101B9000492F5A2F6B2F77274093F100AD0166270D
:101BA00077274093F1008B2F9927AA27BB27809393
:101BB000F100888D8093F100898D8093F1008A8DEA
:101BC0008093F1008091E8008E778093E800DF91A8
:101BD000CF91A4CB80918803813209F0B1CF80915D
:101BE000E800877F8093E8008091E80082FF1FC0B3
:101BF0003091F1002091F1009091F1008091F1007D
:101C00003C8B2D8B9E8B8F8B8091F100888F8091E8
:101C1000F100898F8091F1008A8F8091E8008B77A5
:101C20008093E8007BDBCE01DF91CF916DCF809177
:101C300087038111D9CF84CF80918803813209F045
:101C40007FCF8091E800877F8093E80067DB8091F9
:101C50008A0390918B03998B888BCE01DF91CF9172
:101C60000C9498020024552704C0080E591F880FB1
:101C7000991F009729F076956795B8F37105B9F724
:101C8000802D952F089597FB072E16F4009406D00B
:101C900077FD08D00BD007FC05D03EF490958195D8
:101CA0009F4F0895709561957F4F0895AA1BBB1BA8
:101CB00051E107C0AA1FBB1FA617B70710F0A61B4C
:101CC000B70B881F991F5A95A9F780959095BC016D
:101CD000CD010895DC0101C06D9341505040E0F703
:101CE0000895FB01DC018D91019080190110D9F359
:101CF000990B0895CF93DF93EC018B8180FF33C064
:101D000086FF0CC08F7B8B838E819F8101969F8382
:101D10008E838A8190E0DF91CF91089582FF15C074
:101D2000E881F9819081292F092E000C330B806204
:101D30009923C1F03196F983E8838E819F810196C2
:101D40009F838E83C9019927E6CFEA85FB85CE0163
:101D500009959C0197FFF1CF8B812F3F3F4F31F0C9
:101D600090E2892B8B838FEF9FEFD5CF90E1F9CF56
:101D70000F931F93CF93DF93182F092FEB018B81C4
:101D800081FD09C01FEF0FEF812F902FDF91CF91C1
:101D90001F910F91089582FF14C02E813F818C8185
:101DA0009D81281739073CF4E881F981CF0101961C
:101DB0009983888310838E819F8101969F838E8370
:101DC000E3CFE885F985812F0995892BA1F3DACF37
:101DD000B0E0A0E0EDEEFEE0F0C2FE0135966191CC
:101DE0007191AF01809193039091940383D0E2E0CD
:101DF00000C3B0E0A0E0EEEFFEE0DDC2FE013796EA
:101E00006191719101E913E0D80112968D919C9135
:101E1000DC0113962C911397286013962C93AF0135
:101E200069D09C01D8011296ED91FC919381977F26
:101E30009383C901E4E0DBC2609193037091940342
:101E400097CF0F931F93CF93DF93E0919303F0917C
:101E50009403238100E010E021FD0EC00FEF1FEF7F
:101E6000C801DF91CF911F910F9108950995892B9A
:101E700011F00FEF1FEFCE01EC01899160919303F8
:101E800070919403DB011896ED91FC918111EECFD6
:101E90008AE00995892B21F3E1CF0F931F93CF930C
:101EA000DF93EC01E0919303F0919403838100E0D0
:101EB00010E081FD0EC00FEF1FEFC801DF91CF9141
:101EC0001F910F9108950995892B11F00FEF1FEFC6
:101ED0002196FE0184916091930370919403DB013C
:101EE0001896ED91FC918111EECF8AE00995892B2E
:101EF00021F3E1CFAFE0B0E0EFE7FFE04EC27C01BD
:101F00003B018A01DC0117961C921E9216971396CC
:101F10008C9181FFC0C19FE3292EFE0131964F01B4
:101F2000D70113969C91F30193FD859193FF8191C5
:101F30003F01882309F445C1853239F493FD859129
:101F400093FF81913F01853221F4B70190E010DFCA
:101F5000E7CF30E0B12C412C512CBFE1B51538F062
:101F60008B3211F190F4803209F1833229F157FC60
:101F70003EC020ED280F2A3050F556FE20C08B2D94
:101F80006AE002D2B22EB80E06C08D3291F08033D4
:101F900071F7689450F8F30193FD859193FF819157
:101FA0003F018111DACF23C0689451F8689452F848
:101FB000F2CF689453F8EFCF689454F8ECCF842DA7
:101FC0006AE0E2D1422E480E689455F8E4CF8E3292
:101FD00029F456FCF6C0689456F8DDCF8C3619F417
:101FE000689457F8D8CF8C34F1F08836A1F2982F46
:101FF0009F7D95549330C8F08336C1F18337E1F16A
:10200000833509F05CC0F801C190D1908F016B2D30
:1020100070E056FC02C06FEF7FEFC6013FD15C015C
:10202000689457F80DC031E0B6CF3323E1F0085F74
:102030001F4F2982AA24A394B12C6401E89457F875
:1020400053FC04C04A141B0409F020F5342CA114DD
:10205000B10431F5332009F463CFB70180E290E099
:1020600087DE3A94F7CF0C5F1F4FE3CFF8018081F2
:1020700089830E5F1F4FDECFD801CD90DD908D019B
:102080006B2D70E056FC02C06FEF7FEFC60111D1DF
:102090005C01D4CFB70180E290E06ADE4A94D2CFEF
:1020A000F60157FC859157FE81916F01B70190E0D1
:1020B0005FDE31103A94F1E0AF1AB108C8CF843630
:1020C00019F0893609F06DC0F80157FE63C06191BF
:1020D0007191819191918F01252D2F76522E97FF2D
:1020E00009C090958095709561957F4F8F4F9F4F58
:1020F000689457F82AE030E0A401E6D0C82EC8184A
:10210000DC2CA52C56FE0CC0E894A0F8CB1440F4AF
:1021100054FE05C052FC03C0552D5E7EA52EDB2C5F
:10212000A4FE93C0FE01EC0DF11D8081803309F007
:1021300085C06A2D697EA62E7A2D7870372EA3FC75
:1021400092C0A0FE8CC0BC2CD41410F4B40CBD18EA
:10215000A4FE8FC0B70180E390E00ADEA2FE06C0B5
:1021600088E7A1FC88E590E0B70102DECB1408F413
:102170008CC0CA94D12C8FEFC81AD80AC80CD91CAD
:10218000D6018E916D01B70190E0F2DDC814D9043B
:10219000B9F760CF61917191072E000C880B990BF4
:1021A0009ACFD52CE894D4F82AE0853721F1452D33
:1021B000497FD42E803799F050F4883599F08F36C6
:1021C000C9F0F701868197812F96E2E102C1883735
:1021D000C1F7D4FE02C06894D2F820E10CC0689424
:1021E000D4F8F7CF54FE03C0542F5660D52E20E10B
:1021F00032E002C028E030E0F801D7FE15C061915E
:102200007191819191916C877D878E879F878F01D6
:10221000A4016C857D858E859F8556D0C82EC818F3
:102220005D2CE89457F86CCF81919191AC0170E0EE
:1022300060E04C875D876E877F87E9CFA2FC02C094
:10224000D3947ACFD394D39477CF8A2D867809F418
:1022500073CFF6CFB70180E290E08ADDD394D41437
:10226000C8F3312C75CF342C3D18D41408F470CF3A
:10227000F8CF8A2D867809F479CF8BE2A1FE80E22F
:10228000A7FC8DE2B70190E070CFB70180E390E04A
:102290006FDDBA946BCF8FEF9FEF96CFFC01059067
:1022A000615070400110D8F7809590958E0F9F1F58
:1022B0000895FC016150704001900110D8F780959D
:1022C00090958E0F9F1F0895FA01AA27283061F17B
:1022D000203191F1E8946F936E7F6E5F7F4F8F4F47
:1022E0009F4FAF4FB1E040D0B4E03ED0670F781FB2
:1022F000891F9A1FA11D680F791F8A1F911DA11D9B
:102300006A0F711D811D911DA11D22D009F46894D1
:102310003F91062E000C3019000C000C3019305D76
:102320003193CEF6CF010895462F4770405D41931B
:10233000B3E00FD0C9F7F6CF462F4F70405D4A3358
:1023400018F0495D31FD4052419302D0A9F7EACF20
:10235000B4E0A6959795879577956795BA95C9F74F
:1023600000976105710508959B01AC010A2E069442
:102370005795479537952795BA95C9F7620F731FFB
:10238000841F951FA01D0895002480FD060E660F72
:1023900011F08695D1F7802D08952F923F924F929C
:1023A0005F926F927F928F929F92AF92BF92CF92E5
:1023B000DF92EF92FF920F931F93CF93DF93CDB7EE
:1023C000DEB7CA1BDB0B0FB6F894DEBF0FBECDBF66
:1023D00009942A88398848885F846E847D848C8437
:1023E0009B84AA84B984C884DF80EE80FD800C8140
:1023F0001B81AA81B981CE0FD11D0FB6F894DEBF23
:0C2400000FBECDBFED010895F894FFCF92
:10240C00FFFF00831000000104100000018208008F
:10241C000001000000000000000000000001002589
:10242C002E3278001B5B25693B25694800535441CB
:10243C00484C202D2D204C696E6520252E326920AC
:10244C00436F6C756D6E20252E3269202D2D20006A
:10245C00524541442D575249544500524541442D53
:10246C004F4E4C590020200050524553532043549A
:10247C00524C2D4720464F522048454C50001B5B78
:10248C003B48001B5B4A00302E302E32004D454D30
:10249C004F52593A20004F4B2028324B42290D0005
:1024AC00494E56414C49442049443B20554E4142EB
:1024BC004C4520544F20434F4D4D554E49434154AC
:1024CC00452057495448204652414D2E0D00534546
:1024DC005249414C3A20001B5B44003E20005550B1
:1024EC0044415445000D0A0D0A4E6F7420656E74FC
:1024FC006572696E67206669726D776172652075A9
:10250C007064617465206D6F64652E0D005061738D
:10251C0073776F72642028302D31352063686172B7
:10252C00616374657273293A2000454E43525950C9
:10253C0054494F4E2044495341424C45442E0D00C2
:10254C0053455454494E472050415353574F5244CE
:10255C0020544F3A20272573270D0A001B5B41009E
:0C256C001B5B42001B5B43001B5B450037
:00000001FF
